:020000040800F2
:1000000000000520ED15000885150008871500087B
:10001000891500088B1500088D15000800000000E8
:100020000000000000000000000000008F15000824
:1000300091150008000000009315000895150008B0
:100040003D1600083D1600083D1600083D16000844
:100050003D1600083D1600083D1600083D16000834
:100060003D1600083D1600083D1600083D16000824
:100070003D1600083D1600083D1600083D16000814
:100080003D1600083D1600083D1600083D16000804
:100090003D1600083D1600083D1600083D160008F4
:1000A0003D1600083D1600083D1600083D160008E4
:1000B0003D1600083D1600083D1600083D160008D4
:1000C0003D1600083D1600083D1600083D160008C4
:1000D0003D1600083D1600083D1600083D160008B4
:1000E0003D1600083D1600083D1600083D160008A4
:1000F0003D1600083D1600083D1600083D16000894
:100100003D1600083D1600083D1600083D16000883
:100110003D1600083D1600083D1600083D16000873
:100120003D1600083D1600083D1600083D16000863
:100130003D1600083D1600083D1600083D16000853
:100140003D1600083D1600083D1600083D16000843
:100150003D1600083D1600083D1600083D16000833
:100160003D1600083D1600083D1600083D16000823
:100170003D1600083D1600083D160008000000006E
:100180003D1600083D1600083D1600083D16000803
:100190003D1600083D1600083D1600083D160008F3
:1001A0003D1600083D1600083D1600083D160008E3
:1001B0003D1600083D1600083D1600083D160008D3
:0801C0003D1600083D16000881
:1001C80010B5054C237833B9044B13B10448AFF389
:1001D80000800123237010BD0C00002000000000E7
:1001E8009816000808B5034B1BB103490348AFF341
:1001F800008008BD000000001000002098160008CC
:1002080053B94AB9002908BF00281CBF4FF0FF3175
:100218004FF0FF3000F072B9ADF1080C6DE904CE73
:1002280000F006F8DDF804E0DDE9022304B07047C9
:100238002DE9F047089E04468846002B4BD18A4298
:10024800154667D9B2FA82F24AB1C2F1200701FA1B
:1002580002F320FA07F7954047EA030894404FEA6B
:10026800154E230CB8FBFEF71FFA85FC0EFB17880A
:1002780043EA084307FB0CF1994209D9EB1807F147
:10028800FF3080F01B81994240F21881023F2B44D5
:100298005B1AA4B2B3FBFEF00EFB103344EA03442E
:1002A80000FB0CFCA44509D92C1900F1FF3380F0A0
:1002B8000781A44540F2048102382C4440EA0740F3
:1002C800A4EB0C0400271EB1D4400023C6E9004368
:1002D8003946BDE8F0878B4209D9002E00F0EB8043
:1002E8000027C6E9000138463946BDE8F087B3FA69
:1002F80083F7002F47D18B4202D3824200F2FA8063
:10030800841A61EB030301209846002EE0D0C6E969
:100318000048DDE702B9FFDEB2FA82F2002A40F0B7
:100328008F80491B4FEA154E1FFA85F80127B1FB4C
:10033800FEFC230C0EFB1C1143EA014308FB0CF1E5
:10034800994207D9EB180CF1FF3002D2994200F21A
:10035800CD808446591AA3B2B1FBFEF00EFB1014EF
:1003680043EA044408FB00F8A04507D92C1900F11A
:10037800FF3302D2A04500F2B6801846A4EB080469
:1003880040EA0C409FE7C7F1200CBB4022FA0CFE64
:100398004EEA030E01FA07F420FA0CF521FA0CF3E1
:1003A8004FEA1E482543B3FBF8F92C0C08FB193318
:1003B8001FFA8EFA44EA034309FB0AF49C4202FA44
:1003C80007F200FA07F10BD91EEB030309F1FF301E
:1003D80080F087809C4240F28480A9F1020973442E
:1003E8001B1BADB2B3FBF8F008FB103345EA03441E
:1003F80000FB0AFAA24508D91EEB040400F1FF33FA
:100408006BD2A24569D90238744440EA0940A0FB7E
:100418000289A4EB0A044C45C2464B4654D351D03A
:10042800002E69D0B1EB0A0564EB030404FA0CFC56
:10043800FD40FC404CEA0505C6E90054002747E7A3
:10044800C2F1200320FA03F7954001FA02F021FADD
:1004580003F34FEA154E3843010CB3FBFEF71FFABE
:1004680085F80EFB173341EA034107FB08F38B427B
:1004780004FA02F407D9691807F1FF3C2FD28B421E
:100488002DD9023F2944CB1A81B2B3FBFEF00EFBF3
:10049800103341EA034100FB08F38B4207D969187E
:1004A80000F1FF3C17D28B4215D902382944C91AEA
:1004B80040EA07473BE73746304609E70746E7E69D
:1004C8001846FBE64145ABD2B8EB020A69EB0E02CF
:1004D80001381346A4E76046E9E7184695E76746FA
:1004E800D1E781467CE702382C4447E7ACF1020C9F
:1004F8002B442FE7384608E73746E9E6704700BF40
:1005080010B504460E4B18784FF47A73B3FBF0F32A
:100518000C4A1068B0FBF3F000F078F868B90F2CBB
:1005280001D901200AE0002221464FF0FF3000F0F7
:100538003BF8034B5C60002000E0012010BD00BFC9
:10054800000000200800002008B5032000F01AF879
:100558000020FFF7D5FF00F0F9FF002008BD0000DC
:10056800034A1168034B1B780B441360704700BFA4
:100578002800002000000020014B1868704700BFC9
:10058800280000200649CB6823F4E0631B041B0CF9
:10059800000200F4E0600343024A1A43CA6070474D
:1005A80000ED00E00000FA0530B4154BDB68C3F33A
:1005B8000223C3F10704042C28BF04241D1D062DA3
:1005C80014D9033B4FF0FF3505FA04F421EA04017E
:1005D800994005FA03F322EA03031943002807DBCD
:1005E8000901C9B2074B195430BC70470023E9E729
:1005F80000F00F000901C9B2034B1954F4E700BF1A
:1006080000ED00E000E400E014ED00E00138B0F196
:10061800807F0AD2064B5860064AF02182F82310E0
:100628000020986007221A6070470120704700BFB9
:1006380010E000E000ED00E000230F2B00F2E28064
:10064800F0B482B039E0092200E00022B2403A4317
:1006580002346D4E46F824206C4A1468EA4302EAD4
:1006680004064F6817F4803F01D045EA0406674C3A
:100678002660646802EA04064F6817F4003F01D058
:1006880045EA0406614C6660A46802EA04064F68FD
:1006980017F4801F01D045EA04065C4CA660E468A4
:1006A80022404E6816F4001F01D045EA0402574C58
:1006B800E26001330F2B00F2A28001229A400C68FD
:1006C80004EA0205AA42F4D14C68122C18BF022C85
:1006D80010D1DE08083650F826C003F00704A7003A
:1006E8000F24BC402CEA040C0C69BC4044EA0C04FE
:1006F80040F8264004685F000326BE40F64306EA39
:10070800040C4C6804F00304BC4044EA0C04046084
:100718004C6804F1FF3C112C18BFBCF1010F01D942
:10072800122C11D1846806EA040CCC68BC4044EA57
:100738000C048460446824EA020C4C68C4F3001278
:100748009A4042EA0C024260C26816408A68BA407F
:100758003243C2604A6812F0805FAAD02C4A546CB7
:1007680044F480445464526C02F480420192019A29
:100778009C08A61C244A52F8267003F0030296002F
:100788000F22B24027EA0207224A90423FF45DAFA7
:1007980002F58062904222D002F58062904220D019
:1007A80002F5806290421ED002F5806290421CD011
:1007B80002F5806290421AD002F58062904218D009
:1007C80002F58062904216D002F58062904214D001
:1007D80002F5806290423FF436AF0A2236E70122E2
:1007E80034E7022232E7032230E704222EE705220B
:1007F8002CE706222AE7072228E7082226E702B084
:10080800F0BC7047704700BF00380140003C014011
:10081800003802400000024012B9090481617047A3
:1008280081617047002800F0DB8170B582B0044612
:10083800036813F0010F29D0A24B9B6803F00C0347
:10084800042B1AD09F4B9B6803F00C03082B0FD086
:100858006368B3F5803F40D0002B54D1994B1A6898
:1008680022F480321A601A6822F480221A6039E071
:10087800944B5B6813F4800FEAD0924B1B6813F417
:10088800003F03D06368002B00F0AC81236813F0AD
:10089800020F75D08B4B9B6813F00C0F5ED0894B01
:1008A8009B6803F00C03082B53D0E368002B00F07F
:1008B8008A80844A136843F001031360FFF75CFEE3
:1008C8000546804B1B6813F0020F73D1FFF754FEE7
:1008D800401B0228F5D9032087E17A4A136843F4BC
:1008E8008033136063682BB3FFF746FE0546754BEC
:1008F8001B6813F4003FC9D1FFF73EFE401B642874
:10090800F5D9032071E1B3F5A02F09D06D4B1A6812
:1009180022F480321A601A6822F480221A60E1E711
:10092800684B1A6842F480221A601A6842F48032CE
:100938001A60D7E7FFF720FE0546624B1B6813F4E1
:10094800003FA3D0FFF718FE401B6428F5D9032009
:100958004BE15C4B5B6813F4800FA6D1594B1B68C5
:1009680013F0020F04D0E368012B01D001203CE111
:10097800544A136823F0F803216943EAC10313605A
:10098800236813F0080F46D0636983B34D4A536F49
:1009980043F001035367FFF7EFFD0546494B5B6FD3
:1009A80013F0020F37D1FFF7E7FD401B0228F5D9F6
:1009B80003201AE1434A136823F0F803216943EA44
:1009C800C1031360DCE73F4A136823F00103136097
:1009D800FFF7D2FD05463B4B1B6813F0020FCFD043
:1009E800FFF7CAFD401B0228F5D90320FDE0354A70
:1009F800536F23F001035367FFF7BEFD0546314BE4
:100A08005B6F13F0020F06D0FFF7B6FD401B0228FC
:100A1800F5D90320E9E0236813F0040F7ED0294BB1
:100A28001B6C13F0805F1ED1264B1A6C42F080526B
:100A38001A641B6C03F080530193019B0125224B20
:100A48001B6813F4807F10D0A368012B21D0002BE2
:100A58003CD11C4B1A6F22F001021A671A6F22F060
:100A680004021A671AE00025E9E7174A136843F4F5
:100A780080731360FFF780FD0646134B1B6813F461
:100A8800807FE1D1FFF778FD801B6428F5D903202A
:100A9800ABE00C4A136F43F001031367A3685BB321
:100AA800FFF76AFD0646074B1B6F13F0020F34D1A0
:100AB800FFF762FD801B41F288339842F3D9032087
:100AC80093E000BF0038024000700040052B09D0B9
:100AD800484B1A6F22F001021A671A6F22F00402BB
:100AE8001A67DBE7434B1A6F42F004021A671A6F62
:100AF80042F001021A67D1E7FFF73EFD06463D4B7B
:100B08001B6F13F0020F08D0FFF736FD801B41F270
:100B180088339842F3D9032067E0F5B9A369002B1D
:100B280062D0344A926802F00C02082A5FD0022B85
:100B380019D0304A136823F080731360FFF71CFD47
:100B480004462C4B1B6813F0007F47D0FFF714FDB9
:100B5800001B0228F5D9032047E0264A136C23F02E
:100B680080531364DAE7234A136823F08073136011
:100B7800FFF702FD05461F4B1B6813F0007F06D0E8
:100B8800FFF7FAFC401B0228F5D903202DE0E369A2
:100B9800226A1343626A43EA8213A26A5208013A3C
:100BA80043EA0243E26A43EA026343F00053114A0C
:100BB8005360136843F080731360FFF7DDFC04464D
:100BC8000C4B1B6813F0007F06D1FFF7D5FC001B08
:100BD8000228F5D9032008E0002006E0002004E000
:100BE80001207047012000E0002002B070BD012004
:100BF800FBE700BF00380240264B9B6803F00C035C
:100C0800042B44D0082B01D0234870472DE9F04B22
:100C1800204B5A6802F03F025B6813F4800F13D030
:100C28001C4B5968C1F3881100231C48A1FB000123
:100C3800FFF7E6FA174B5B68C3F3014301335B0028
:100C4800B0FBF3F0BDE8F08B124B5B68C3F388137D
:100C58001E4600275C010025E41A65EB0705A9017B
:100C680041EA9461A001001B61EB0501CB0043EA56
:100C78005073C400A01943EB07018B0243EA905359
:100C88008402204619460023FFF7BAFAD2E7034840
:100C9800704700BF003802400024F40040787D010E
:100CA800002800F0A28070B50446524B1B6803F080
:100CB8000F038B420CD24F4A136823F00F030B43E8
:100CC8001360136803F00F038B4201D0012070BD3D
:100CD800236813F0020F17D013F0040F04D0464A0C
:100CE800936843F4E0539360236813F0080F04D02B
:100CF800414A936843F4604393603F4A936823F002
:100D0800F003A068034393600D46236813F0010FB6
:100D180031D06368012B20D0022B25D0364A1268C7
:100D280012F0020F63D034498A6822F00302134399
:100D38008B60FFF721FC06462F4B9B6803F00C03E2
:100D48006268B3EB820F16D0FFF716FC801B41F2E6
:100D580088339842F0D90320B9E7274A126812F479
:100D6800003FE0D10120B2E7234A126812F0007F69
:100D7800D9D10120ABE71F4B1B6803F00F03AB422F
:100D88000CD91C4A136823F00F032B431360136814
:100D980003F00F03AB4201D0012098E7236813F05A
:100DA800040F06D0144A936823F4E053E1680B4318
:100DB8009360236813F0080F07D00F4A936823F451
:100DC8006043216943EAC1039360FFF715FF0A4BAB
:100DD8009B68C3F30313094AD35CD840084B1860D7
:100DE8000020FFF78DFB002071E7012070470120EC
:100DF8006DE700BF003C024000380240B016000812
:100E0800080000202DE9F04F91B000240B940C94B9
:100E18000D940E940F94A74B1A6B42F010021A63AC
:100E28001A6B02F010020092009A1A6B42F040020C
:100E38001A631A6B02F040020192019A1A6B42F08F
:100E480002021A631A6B02F002020292029A1A6BE9
:100E580042F008021A631A6B02F008020392039A1E
:100E68001A6B42F004021A631A6B02F0040204922D
:100E7800049A1A6B42F001021A631A6B02F001021B
:100E88000592059A1A6B42F400721A631A6B02F4FF
:100E980000720692069A1A6B42F480721A631A6BF1
:100EA80002F480720792079A1A6B42F480621A63FE
:100EB8001A6B02F480620892089A1A6B42F02002B8
:100EC8001A631A6B02F020020992099A1A6B42F00F
:100ED80080021A631B6B03F080030A930A9B0122AA
:100EE80020217548FFF798FC224641F20C0173480F
:100EF800FFF792FC224608217148FFF78DFC224635
:100F08004FF400516F48FFF787FC2246C8216E480E
:100F1800FFF782FC10230B9302250C950D940E9479
:100F28004FF00E0BCDF83CB00BA96848FFF784FBD7
:100F380008230B930C940D940BA96448FFF77CFBD2
:100F480004230B930C950D9403260E9609230F93F7
:100F58000BA95E48FFF770FB4FF4D0430B930C9539
:100F68000D940E960B230F930BA95748FFF764FBBC
:100F78004FF683730B930C950D940E964FF00C0857
:100F8800CDF83C800BA95148FFF756FB4FF440734E
:100F98000B9312230C9301270D970E9404230F93A0
:100FA8000BA94B48FFF748FB43F623430B930C95DB
:100FB8000D940E964FF00A09CDF83C900BA94448C1
:100FC800FFF73AFB10230B930C950D940E940F9595
:100FD8000BA93F48FFF730FB4FF0800ACDF82CA053
:100FE8000C950D940E9408230F930BA93248FFF724
:100FF80023FB4FF4F8530B930C950D940E96CDF8F4
:101008003C800BA93348FFF717FB4FF400430B93C1
:101018000C950D940E940F970BA92F48FFF70CFB16
:1010280060230B930C950D940E940D230F930BA92D
:101038002648FFF701FBCDF82CA00C950D940E94D3
:1010480007230F930BA92248FFF7F6FA40230B93C7
:101058000C950D940E96CDF83C900BA91C48FFF703
:10106800EBFA48F233130B930C950D940E96CDF8CA
:101078003C800BA91448FFF7DFFA4EF6FF730B9379
:101088000C950D940E94CDF83CB00BA91348FFF7BE
:10109800D3FA4FF4805ACDF82CA00C940D940BA9D8
:1010A8000E48FFF7C9FA40230B930D4B0C930D9490
:1010B8000BA917E000380240000C02400020024053
:1010C80000280240001C02400018024000100240A4
:1010D80000040240000802400000024000240240D0
:1010E80000001210A248FFF7A7FA4CF203730B9303
:1010F8000C950D940E96CDF83C800BA99C48FFF7F3
:101108009BFA4FF4E0530B930C950D940E96CDF883
:101118003C900BA99748FFF78FFAF0230B930C9597
:101128000D940E94CDF83C900BA99348FFF784FAE0
:10113800F7230B930C950D940E94CDF83CB00BA9A6
:101148008E48FFF779FACDF82CA00C950D940E94E3
:1011580009220F920BA98A48FFF76EFA4FF48063B1
:101168000B930C950D940E94CDF83C900BA98448E4
:10117800FFF762FA20230B930C970D940E940BA99A
:101188007B48FFF759FA08220B920C950D940E94A0
:101198000D220F920BA97648FFF74EFA41F20C0385
:1011A8000B930C970D940E940BA97348FFF744FA10
:1011B8004FF4005ACDF82CA00C940D940BA971484B
:1011C800FFF73AFA4FF63F030B930C950D940E96E2
:1011D800CDF83C800BA96C48FFF72EFA4FF4464334
:1011E8000B930C950D940E94CDF83CB00BA9624866
:1011F800FFF722FA08220B920C970D940E940BA974
:101208005E48FFF719FA4FF4007BCDF82CB00C9527
:101218000D940E940D220F920BA95948FFF70CFA62
:1012280010220B920C940D940BA95148FFF704FA65
:1012380004220B920C950D940E96CDF83C800BA9C8
:101248004B48FFF7F9F948F204030B930C940D94FB
:101258000BA94E48FFF7F0F90B950C950D940E94D9
:1012680005220F920BA94448FFF7E6F9CDF82CA008
:101278000C970D940E940BA94448FFF7DDF94FF431
:10128800BC430B930C950D940E940D220F920BA951
:101298003E48FFF7D1F90B970C950D940E940F95D6
:1012A8000BA93548FFF7C8F9CDF82CB00C950D946B
:1012B8000E9407220F920BA92E48FFF7BDF94FF4A1
:1012C80080730B930C950D940E940F970BA92948D6
:1012D800FFF7B2F9CDF82CA02D4B0C930D940BA968
:1012E8002548FFF7A9F9C0230B930C950D940E968A
:1012F80008230F930BA92348FFF79EF910230B939C
:101308000C950D940E96CDF83C900BA91F48FFF74D
:1013180093F94FF0280ACDF82CA00C950D940E9651
:10132800CDF83C800BA91948FFF786F9C8230B9321
:101338000C970D940E940BA91148FFF77DF94FF403
:10134800F8630B930C960D940BA90F48FFF774F9EB
:1013580008230B930C950D940E96CDF83C800BA9A1
:101368000848FFF769F905230B930C950D9411E0D4
:10137800000C024000000240002002400028024009
:10138800001802400008024000140240001C0240FD
:10139800000012100E96CDF83C900BA93D48FFF7BF
:1013A8004BF932230B930C950D940E960B230F9348
:1013B8000BA93848FFF740F904230B930C950D94BB
:1013C8000E9609230F930BA93348FFF735F94FF40D
:1013D80060530B930C950D940E9609230F930BA94C
:1013E8002E48FFF729F904230B930C940D940BA9AD
:1013F8002B48FFF721F986230B930C950D940E9635
:101408000B230F930BA92748FFF716F90B970C9698
:101418000D940BA92348FFF70FF950230B930C9554
:101428000D940E940D230F930BA91E48FFF704F992
:101438004FF4C0730B9312230C930D970E9604234D
:101448000F930BA91848FFF7F7F8CDF82CA00C95C7
:101458000D940E96CDF83C900BA91248FFF7ECF8C6
:1014680040230B930C950D940E9409230F930BA90D
:101478000D48FFF7E1F84FF440430B930C950D949A
:101488000E9405230F930BA90348FFF7D5F811B065
:10149800BDE8F08F0008024000040240000C024042
:1014A8000018024000000240001C024030B595B010
:1014B8003022002108A800F0E3F8002403940494E3
:1014C8000594069407941B4B1A6C42F080521A64D8
:1014D8001B6C03F080530193019B174A136823F494
:1014E800404343F400431360136803F440430293FA
:1014F800029B0225089501230B9310230C930E954C
:101508000F940A231093D22311931295139508A8C8
:10151800FFF788F90F230393049505944FF4A0531C
:1015280006934FF480530793052103A8FFF7B8FBF0
:1015380015B030BD003802400070004008B5FFF714
:1015480003F8FFF7B3FFFFF75DFCFEE782B00A4B35
:101558001A6C42F080521A641A6C02F0805200929F
:10156800009A5A6C42F480425A645B6C03F48043DC
:101578000193019B02B07047003802407047FEE7B4
:10158800FEE7FEE7FEE770477047704708B5FEF7CD
:10159800E7FF08BD10B40F4AD2F8883043F470034F
:1015A800C2F888300C4B196841F00101196000201D
:1015B80098601C68094921401960094959601968EF
:1015C80021F480211960D8604FF0006393605DF8C2
:1015D800044B704700ED00E000380240FFFFF6FEC4
:1015E80010300024DFF834D0002103E00C4B5B58A6
:1015F800435004310B480C4B42189A42F6D30B4A1D
:1016080002E0002342F8043B094B9A42F9D3FFF762
:10161800C1FF00F011F8FFF791FF704700000520A7
:10162800D8160008000000200C0000200C00002044
:101638002C000020FEE7000070B50D4E0D4CA41BD9
:10164800A4100025A54209D10B4E0C4C00F020F83F
:10165800A41BA4100025A54205D170BD56F825305D
:1016680098470135EEE756F8253098470135F2E7F7
:10167800D0160008D0160008D0160008D4160008A6
:1016880002440346934200D1704703F8011BF9E76F
:10169800F8B500BFF8BC08BC9E467047F8B500BF57
:0816A800F8BC08BC9E46704727
:1016B0000000000000000000010203040607080902
:0816C000000000000102030418
:0816C80070EBFF7F0100000040
:0416D000ED01000820
:0416D400C901000840
:0C16D80001000000100000000024F400DD
:04000005080015EDED
:00000001FF
